:020000040000FA
:100000000C945D000C9485000C9485000C94850084
:100010000C9485000C9485000C9485000C9485004C
:100020000C9485000C9485000C9485000C9485003C
:100030000C9485000C9485000C9485000C9485002C
:100040000C9433050C9485000C9401050C94DB048E
:100050000C9485000C9485000C9485000C9485000C
:100060000C947D050C94850000000008000201003E
:100070000003040700000000000000000000000072
:10008000250028002B0000000000240027002A0083
:10009000040404040404040402020202020203032E
:1000A0000303030301020408102040800102040836
:1000B00010200102040810209C0611241FBECFEF5F
:1000C000D8E0DEBFCDBF11E0A0E0B1E0ECE6F1E1A9
:1000D00002C005900D92AE36B107D9F722E0AEE628
:1000E000B1E001C01D92A63EB207E1F710E0CDE5F8
:1000F000D0E004C02197FE010E94AE08CC35D107A4
:10010000C9F70E94E4060C94B4080C94000090E037
:10011000FC01EC55FF4F249180579F4FFC018491C7
:10012000882399F090E0880F991FFC01EA57FF4F50
:10013000A591B491FC01E458FF4F859194918FB73C
:10014000F894EC91E22BEC938FBF089508950895F5
:10015000AF92BF92CF92DF92EF92FF920F931F93D5
:10016000CF93DF936C017B018B01040F151FEB0113
:100170005E01AE18BF08C017D10759F06991D601CA
:10018000ED91FC910190F081E02DC6010995892B3C
:1001900079F7C501DF91CF911F910F91FF90EF90FB
:1001A000DF90CF90BF90AF900895FC01538D448DA8
:1001B000252F30E0842F90E0821B930B541710F012
:1001C000CF96089501970895FC01918D828D98171F
:1001D00061F0A28DAE0FBF2FB11D5D968C91928DF7
:1001E0009F5F9F73928F90E008958FEF9FEF089528
:1001F000FC01918D828D981731F0828DE80FF11DF1
:10020000858D90E008958FEF9FEF0895FC01918D0B
:10021000228D892F90E0805C9F4F821B91098F7304
:100220009927089581E392E00E94060121E0892B3D
:1002300009F420E0822F089580E090E0892B29F0D6
:100240000E94120181110C9400000895FC01A48DFC
:10025000A80FB92FB11DA35ABF4F2C91848D90E0E8
:1002600001968F739927848FA689B7892C93A089CB
:10027000B1898C91837080648C93938D848D981355
:1002800006C00288F389E02D80818F7D80830895E8
:10029000EF92FF920F931F93CF93DF93EC0181E0D6
:1002A000888F9B8D8C8D98131AC0E889F98980817D
:1002B00085FF15C09FB7F894EE89FF896083E889B0
:1002C000F98980818370806480839FBF81E090E0A2
:1002D000DF91CF911F910F91FF90EF900895F62E2F
:1002E0000B8D10E00F5F1F4F0F731127E02E8C8DC9
:1002F0008E110CC00FB607FCFACFE889F98980810E
:1003000085FFF5CFCE010E942601F1CFEB8DEC0FDA
:10031000FD2FF11DE35AFF4FF0829FB7F8940B8F2A
:10032000EA89FB8980818062CFCFCF93DF93EC0194
:10033000888D8823B9F0AA89BB89E889F9898C91CD
:1003400085FD03C0808186FD0DC00FB607FCF7CF89
:100350008C9185FFF2CF808185FFEDCFCE010E9489
:100360002601E9CFDF91CF91089590E0FC01E85993
:10037000FF4F2491FC01EC55FF4F3491FC01E057F5
:10038000FF4FE491EE23C9F0222339F0233001F12D
:10039000A8F4213019F1223029F1F0E0EE0FFF1F0F
:1003A000E458FF4FA591B4918FB7F894EC91611187
:1003B00026C030953E233C938FBF08952730A9F087
:1003C0002830C9F0243049F7809180008F7D03C028
:1003D000809180008F7780938000DFCF84B58F7706
:1003E00084BDDBCF84B58F7DFBCF8091B0008F774C
:1003F0008093B000D2CF8091B0008F7DF9CF3E2B9B
:10040000DACF3FB7F8948091250290912602A0910F
:100410002702B091280226B5A89B05C02F3F19F0EE
:100420000196A11DB11D3FBFBA2FA92F982F882774
:10043000BC01CD01620F711D811D911D42E0660F4F
:10044000771F881F991F4A95D1F708958F929F9221
:10045000AF92BF92CF92DF92EF92FF924B015C017D
:100460000E9401026B017C010E9401026C197D094E
:100470008E099F09683E734081059105A8F321E02C
:10048000821A9108A108B10888EEC80E83E0D81E30
:10049000E11CF11C81149104A104B10429F7FF901F
:1004A000EF90DF90CF90BF90AF909F908F90089586
:1004B00008952091AF01260F3327331F21323105D4
:1004C000ECF42091F801FC0190E080E0243069F028
:1004D00082E00895A091AF012191AC0141575E4F98
:1004E000A40FB52FB11D2C930196861798F3809118
:1004F000AF01680F6093AF0180E0089581E0089537
:100500001092F80181E08093F7011092D20161E02E
:1005100082E10E94B50161E083E10E94B501E9EB4F
:10052000F0E080818E7F808380818D7F808388E46E
:100530008093B80085E48093BC000895CF93DF9347
:1005400091E090938E018823B9F0C091B800D091CA
:10055000BA008091BC008A7B8093BC0060E082E19D
:100560000E94B50160E083E10E94B5010E94800213
:10057000D093BA00C093B800DF91CF910895089549
:10058000E091300280912F02E81730F4F0E0E25958
:10059000FE4F808190E008958FEF9FEF0895909136
:1005A000300280912F022FEF3FEF981748F4E92F88
:1005B000F0E0E259FE4F208130E09F5F90933002DF
:1005C000C901089580912F0290913002891B990BE7
:1005D0000895CF92DF92EF92FF920F931F93CF93E4
:1005E000DF937C01CB018A012091FE01222389F057
:1005F000EB016B01C40ED51ECC15DD0569F06991C8
:10060000D701ED91FC910190F081E02DC701099592
:10061000F3CF642F0E945902C801DF91CF911F913F
:100620000F91FF90EF90DF90CF900895CF93DF93DD
:100630001F92CDB7DEB769832091FE012223F9F026
:1006400020912D02203258F021E030E0FC0133836C
:10065000228390E080E00F90DF91CF910895809108
:100660002E02E82FF0E0E150FE4F998190838F5FDA
:1006700080932E0280932D0281E090E0ECCF61E028
:10068000CE0101960E945902F7CFCF92DF92EF92EE
:10069000FF920F931F93CF93DF93FC01C48121E05E
:1006A0002093FE01C0931F0210922E0210922D0281
:1006B0008385682B8EEC92E00E941603D0912D0268
:1006C000D13208F092C00E9401026B017C0180913E
:1006D000F801811165C082E08093F80181E0809388
:1006E000F7018FEF8093F6011092F501D093F4019A
:1006F000AFEFB1E0E4EDF1E080E0D81385C01092F7
:10070000D3018091D301CC0FC82BC093D30180912A
:10071000D201813009F07CC01092D2010E94010206
:100720006B017C018091D3018093BB008091FA0121
:100730009091FB01A091FC01B091FD01892B8A2BC6
:100740008B2B99F00E9401020091FA011091FB019C
:100750002091FC013091FD016C197D098E099F09E2
:100760000617170728073907E0F18091BC0083FDC1
:10077000D9CF85EC8093BC000E9401026B017C0103
:100780008091F801823009F445C08091F6018F3FD5
:1007900061F18091F601803241F18091F60125C02E
:1007A0008091FA019091FB01A091FC01B091FD01B3
:1007B000892B8A2B8B2B09F48ACF0E94010200918E
:1007C000FA011091FB012091FC013091FD016C199F
:1007D0007D098E099F09061717072807390708F0B2
:1007E00076CF8091F9010E949E0210922E02109203
:1007F0002D021092FE01DF91CF911F910F91FF907A
:10080000EF90DF90CF9008959D9191938F5F75CF7A
:1008100085EEB0CF8091FA019091FB01A091FC018F
:10082000B091FD01892B8A2B8B2B09F4A9CF0E9453
:1008300001020091FA011091FB012091FC0130911D
:10084000FD016C197D098E099F09061717072807F6
:10085000390708F095CFC5CF90E080E00895FC01FE
:1008600001900020E9F73197AF01481B590BBC01FB
:100870008AED92E00C94A8000F931F93CF938C0104
:10088000C62F0E9445036C2F6460C8010E94450377
:100890006C2F6B7FC8010E94450383EC90E00197A9
:1008A000F1F7CF911F910F9108950F931F93CF935D
:1008B000DF938C01D62FC42F607F642B0E943C04F1
:1008C00080E1D89FB00111246C2BC801DF91CF913A
:1008D0001F910F910C943C04CF93DF93CDB7DEB7FB
:1008E00028970FB6F894DEBF0FBECDBF98E0E0E0CA
:1008F000F1E0DE01119601900D929A95E1F7909149
:10090000E202981708F48FEF90E0880F991F21E01A
:1009100030E02C0F3D1F820F931FFC016081606847
:1009200040E08AED92E028960FB6F894DEBF0FBE45
:10093000CDBFDF91CF910C94550441E00E94550446
:1009400081E090E0089585ED8093BC008091FA01EC
:100950009091FB01A091FC01B091FD010796A11DB2
:10096000B11D23E0B695A795979587952A95D1F760
:100970002091BC0024FD03C01092F801089540911D
:10098000FA015091FB016091FC017091FD01452B32
:10099000462B472B69F30097A105B10541F025E3EC
:1009A0002A95F1F700000197A109B109E1CF8091E3
:1009B000F9010C949E021F920F920FB60F92112410
:1009C0002F933F934F935F936F937F938F939F9357
:1009D000AF93BF93EF93FF9381E392E00E942601D0
:1009E000FF91EF91BF91AF919F918F917F916F9107
:1009F0005F914F913F912F910F900FBE0F901F90DD
:100A000018951F920F920FB60F9211242F938F9368
:100A10009F93EF93FF93E0914102F0914202808116
:100A2000E0914702F091480282FD1BC090818091C5
:100A30004A028F5F8F7320914B02821741F0E09141
:100A40004A02F0E0EF5CFD4F958F80934A02FF91E0
:100A5000EF919F918F912F910F900FBE0F901F904C
:100A600018958081F4CF1F920F920FB60F92112428
:100A70002F933F938F939F93AF93BF9380912102C6
:100A800090912202A0912302B09124023091200281
:100A900023E0230F2D3758F50196A11DB11D20939A
:100AA00020028093210290932202A0932302B0930C
:100AB00024028091250290912602A0912702B091F4
:100AC00028020196A11DB11D809325029093260254
:100AD000A0932702B0932802BF91AF919F918F916D
:100AE0003F912F910F900FBE0F901F90189526E801
:100AF000230F0296A11DB11DD2CF1F920F920FB6E8
:100B00000F9211242F933F934F935F936F937F9393
:100B10008F939F93AF93BF93EF93FF938091B9000F
:100B2000887F803609F44AC0F0F5883209F4A7C0FE
:100B300018F5803109F49BC0B8F4882309F4F9C092
:100B4000883009F494C0FF91EF91BF91AF919F91CC
:100B50008F917F916F915F914F913F912F910F9066
:100B60000FBE0F901F901895883109F488C080320D
:100B700051F78093F60114C0803409F49DC040F40D
:100B80008033B9F38833F9F68093F60185ECB0C071
:100B9000803509F485C0883509F496C0883499F603
:100BA0000E94A304D0CF883909F48CC038F5883767
:100BB00029F050F4883611F0803729F683E08093CD
:100BC000F8011092D10157C0883809F47BC08039F0
:100BD00019F0803809F0B7CF8091D101803208F048
:100BE00071C0E091D10181E08E0F8093D10180919D
:100BF000BB00F0E0EF54FE4F80833DC0803B39F0F6
:100C0000E0F4803A09F479C0883A09F09CCF84E096
:100C10008093F8011092B0011092AF01E0912B0285
:100C2000F0912C0209958091AF0181110FC081E0F4
:100C30008093AF0110928F0109C0803C09F4A6CFC8
:100C4000883C09F4A3CF883B09F07DCFE091B00147
:100C500081E08E0F8093B001F0E0E157FE4F80817C
:100C60008093BB009091B0018091AF0129C0809129
:100C7000D3018093BB0085EC8093BC0064CF90913E
:100C8000F5018091F401981758F5E091F50181E0A4
:100C90008E0F8093F501F0E0EC52FE4F8081E9CF9A
:100CA000E091F50181E08E0F8093F5018091BB000A
:100CB000F0E0EC52FE4F80839091F5018091F401B9
:100CC0009817C8F285E8D8CFE091F50181E08E0F42
:100CD0008093F5018091BB00F0E0EC52FE4F8083E1
:100CE0008091F70181115CCF81E08093D20184EA89
:100CF0008093BC001092F80126CF85EC8093BC0055
:100D00001092F8018091D101803230F4E091D1014C
:100D1000F0E0EF54FE4F10826091D10170E0E0915D
:100D20002902F0912A0281EB91E009951092D101FC
:100D30000ACF1092F60134CFE1E3F2E0138212827F
:100D400088EE93E0A0E0B0E084839583A683B78328
:100D50002CE031E03183208325EC30E03587248797
:100D600024EC30E03787268720EC30E0318B208B75
:100D700021EC30E0338B228B22EC30E0358B248B5E
:100D800026EC30E0378B268B118E128E138E148E4C
:100D9000EEECF2E01382128284839583A683B783FC
:100DA0008EE191E091838083EAEDF2E0138212827A
:100DB00080E391E09183808387E2848380E181876F
:100DC00082E0828713860895789484B5826084BD1A
:100DD00084B5816084BD85B5826085BD85B581603F
:100DE00085BD80916E00816080936E0010928100BD
:100DF0008091810082608093810080918100816078
:100E00008093810080918000816080938000809138
:100E1000B10084608093B1008091B00081608093C4
:100E2000B00080917A00846080937A0080917A008B
:100E3000826080937A0080917A00816080937A004A
:100E400080917A00806880937A001092C10010929D
:100E5000300210922F0210922E0210922D020E9448
:100E6000800286EA90E090932C0280932B0287EA1E
:100E700090E090932A02809329021092DF028091E1
:100E8000E402823018F098E09093DF028093E2024F
:100E900062E370E080E090E00E9426026091E5024B
:100EA0008AED92E00E94450368EE73E080E090E0F6
:100EB0000E94260260E38AED92E00E943C04CBE4AB
:100EC000D6E4CE010197F1F760E38AED92E00E944B
:100ED0003C042197F1F760E38AED92E00E943C0424
:100EE00083E592E00197F1F760E28AED92E00E94DB
:100EF0003C046091DF02606240E08AED92E00E9473
:100F0000550484E08093E00240E06CE08AED92E0DA
:100F10000E94550440E061E08AED92E00E94550491
:100F2000CBE3DFE1CE010197F1F712E01093E1028C
:100F300040E066E08AED92E00E94550440E062E005
:100F40008AED92E00E9455042197F1F788E08093A2
:100F5000E50260E08AED92E00E94450387E00E948E
:100F6000870084E00E94870085E00E948700E0916E
:100F70004102F09142021083E0913D02F0913E0265
:100F80001082E0913F02F09140028FEC808310923A
:100F90004902E0914502F091460286E08083E091AB
:100FA0004302F0914402808180618083E09143029A
:100FB000F0914402808188608083E0914302F09147
:100FC0004402808180688083E0914302F091440272
:100FD00080818F7D8083D0E40BE31FE188248A9495
:100FE00083E0982EA12CB12C90E0E92E90E0F92E10
:100FF000D0937C0080917A00806480937A00809105
:101000007A0086FDFCCFD0907800C091790040E056
:1010100061E08AED92E00E945504C8010197F1F762
:1010200080E00E946C0488E391E00E942F0481E03C
:101030000E946C04BC2FAD2D28E833E10E94A70864
:10104000A50194010E945708293E334014F18CE415
:1010500091E00E942F0461E087E00E94B50160E00A
:1010600084E00E94B50161E085E00E94B50168EE70
:1010700073E080E090E00E942602E114F10409F49C
:10108000B7CF0E941201882309F4B2CF0E9400005A
:10109000AFCF8DE591E00E942F0460E087E00E94D1
:1010A000B50161E084E00E94B50160E0DDCF052E6E
:1010B00097FB1EF400940E946E0857FD07D00E9413
:1010C000760807FC03D04EF40C946E0850954095BA
:1010D000309521953F4F4F4F5F4F089590958095E4
:1010E000709561957F4F8F4F9F4F0895A1E21A2E03
:1010F000AA1BBB1BFD010DC0AA1FBB1FEE1FFF1FBC
:10110000A217B307E407F50720F0A21BB30BE40B0B
:10111000F50B661F771F881F991F1A9469F7609552
:101120007095809590959B01AC01BD01CF0108950C
:10113000A29FB001B39FC001A39F700D811D112418
:10114000911DB29F700D811D1124911D08950E9463
:101150009808B7FF0895821B930B0895EE0FFF1FA9
:101160000590F491E02D0994F894FFCF0000400021
:1011700014005400000000004801A800D5009501AB
:101180000601E400F800000000001603E9022C0448
:10119000BF02E202CF02C002000000009D04A800CE
:1011A0002C045802416972205175616C6974792070
:1011B0004D6F6E69746F72005374617475733A2069
:1011C000506F6C6C75746564005374617475733A18
:0A11D000204E6F726D616C2020004C
:107E0000112484B714BE81FFF0D085E080938100F7
:107E100082E08093C00088E18093C10086E0809377
:107E2000C20080E18093C4008EE0C9D0259A86E02C
:107E300020E33CEF91E0309385002093840096BBD3
:107E4000B09BFECF1D9AA8958150A9F7CC24DD24C4
:107E500088248394B5E0AB2EA1E19A2EF3E0BF2EE7
:107E6000A2D0813461F49FD0082FAFD0023811F036
:107E7000013811F484E001C083E08DD089C08234E0
:107E800011F484E103C0853419F485E0A6D080C0E4
:107E9000853579F488D0E82EFF2485D0082F10E0AE
:107EA000102F00270E291F29000F111F8ED06801E7
:107EB0006FC0863521F484E090D080E0DECF843638
:107EC00009F040C070D06FD0082F6DD080E0C81688
:107ED00080E7D80618F4F601B7BEE895C0E0D1E017
:107EE00062D089930C17E1F7F0E0CF16F0E7DF06D8
:107EF00018F0F601B7BEE89568D007B600FCFDCFD4
:107F0000A601A0E0B1E02C9130E011968C91119780
:107F100090E0982F8827822B932B1296FA010C0160
:107F200087BEE89511244E5F5F4FF1E0A038BF0790
:107F300051F7F601A7BEE89507B600FCFDCF97BE46
:107F4000E89526C08437B1F42ED02DD0F82E2BD052
:107F50003CD0F601EF2C8F010F5F1F4F84911BD097
:107F6000EA94F801C1F70894C11CD11CFA94CF0C13
:107F7000D11C0EC0853739F428D08EE10CD085E9AC
:107F80000AD08FE07ACF813511F488E018D01DD067
:107F900080E101D065CF982F8091C00085FFFCCF94
:107FA0009093C60008958091C00087FFFCCF809118
:107FB000C00084FD01C0A8958091C6000895E0E648
:107FC000F0E098E1908380830895EDDF803219F02E
:107FD00088E0F5DFFFCF84E1DECF1F93182FE3DFCA
:107FE0001150E9F7F2DF1F91089580E0E8DFEE27F6
:047FF000FF270994CA
:027FFE00040479
:00000001FF
